:020000040800F2
:10000000F007002065020008F7280008E91D000835
:10001000F52800085B040008F52C0008000000002B
:10002000000000000000000000000000FB280008A5
:100030008D04000800000000F9280008FD280008D1
:100040007F0200087F0200087F0200087F0200088C
:100050007F0200087F0200087F0200087F0200087C
:100060007F0200087F0200087F0200087F0200086C
:100070007F0200087F0200087F0200087F0200085C
:100080007F0200087F0200087F0200087F0200084C
:100090005D040008690400087F0200087F02000870
:1000A0007F0200087F0200087F0200087F0200082C
:1000B0007F0200087F0200087F020008F91D000887
:1000C000ED1D00087F0200087F0200087F02000883
:1000D0007F0200087F0200087F0200087F020008FC
:1000E0007F0200087F0200087F0200087F020008EC
:1000F0007F020008B12900087F0200087F02000883
:100100007F0200087F0200087F0200087F020008CB
:10011000B12A0008BD2A00087F0200087F020008FB
:100120007F0200087F0200087F0200087F020008AB
:100130007F02000800000000000000007F020008AD
:1001400075040008810400087F0200087F0200088F
:100150007F0200087F0200087F0200087F0200087B
:100160007F0200087F0200087F0200087F0200086B
:100170007F0200087F0200087F02000800000000E4
:10018000000000007F0200080000000000000000E6
:100190007F02000800000000000000007F0200084D
:1001A0000000000000000000000000007F020008C6
:1001B0007F0200087F0200087F0200087F0200081B
:1001C0007F02000800F002F800F03CF80AA090E876
:1001D000000C82448344AAF10107DA4501D100F002
:1001E00031F8AFF2090EBAE80F0013F0010F18BF93
:1001F000FB1A43F001031847082C0000282C0000CC
:10020000103A24BF78C878C1FAD8520724BF30C842
:1002100030C144BF04680C60704700000023002414
:1002200000250026103A28BF78C1FBD8520728BF06
:1002300030C148BF0B6070471FB502F0CFFD1FBD36
:1002400010B510BD00F0CFF81146FFF7F5FF02F032
:1002500063FD00F0EDF803B4FFF7F2FF03BC00F01C
:10026000F5F800000948804709480047FEE7FEE727
:10027000FEE7FEE7FEE7FEE7FEE7FEE7FEE7FEE756
:1002800004480549054A064B70470000A1290008AB
:10029000C5010008F0010020F0070020F003002055
:1002A000F003002053EA020C00F069802DE9F04BC6
:1002B0004FF00006002B1FBFB3FA83F503FA05F4D5
:1002C00024FA05F65E4012BF1643B2FA82F502FA2E
:1002D00005F4C5F120051EBF22FA05FC44EA0C0412
:1002E000203556EA044C4FEA144418BF641C4FF002
:1002F00000084FF00009904271EB030C39D300293C
:1003000019BFB1FA81F701FA07F6B0FA80F700FADF
:1003100007F6C7F120071EBF20FA07FC46EA0C06C5
:100320002037B6FBF4FCA7EB0507103F07F01F0BC7
:10033000CBF120060CFA0BFB2CFA06F644BFB346B1
:100340000026202FA4BF5E464FF0000B5BEA060C90
:1003500008BF4FF0010B19EB0B09ABFB027C48EB1C
:100360000608C01B06FB02CC0BFB03CC71EB0C0197
:10037000C1E70B46024641464846BDE8F08B13B53F
:100380004FF000004FF00001AFF30080BDE81C40CB
:1003900070474FF0000200B5134694469646203948
:1003A00022BFA0E80C50A0E80C50B1F12001BFF42E
:1003B000F7AF090728BFA0E80C5048BF0CC05DF894
:1003C00004EB890028BF40F8042B08BF704748BFE2
:1003D00020F8022B11F0804F18BF00F8012B704756
:1003E000704770477047754600F02CF8AE46050020
:1003F0006946534620F00700854618B020B5FFF740
:100400003FFFBDE820404FF000064FF000074FF0DF
:1004100000084FF0000B21F00701AC46ACE8C00922
:10042000ACE8C009ACE8C009ACE8C0098D4670472B
:1004300010B50446AFF300802046BDE81040FFF73A
:100440000ABF0000004870479001002001491820B1
:10045000ABBEFEE7260002007047FEE7014800F051
:1004600017B8000014000020014800F011B8000087
:1004700014000020014800F00BB800003C000020F0
:10048000014800F005B800003C00002070477047AC
:100490002DE9F05F0546006800244669D0F8049015
:1004A0008768D0F80CB0D0F810A0D0F81880F10709
:1004B00048D0F90714D001218160B80703D5284638
:1004C00000F00AFA0CE0780702D54FF4006407E068
:1004D000380702D54FF4805402E0284600F0FBF9BB
:1004E000F80516D529684FF480708860B80503D5E3
:1004F000284600F0F3F90CE0780502D544F40054E6
:1005000007E0380502D544F4804402E0284600F0B4
:10051000E4F9F80316D529684FF480308860B803F1
:1005200003D5284600F0DCF90CE0780302D544F44A
:10053000004407E0380302D544F4803402E0284642
:1005400000F0CDF9300707D55FEACB6004D5296804
:10055000102044F40074C86070074FF0080707D5F6
:100560005FEA0B7004D52868C760284600F0AEF932
:10057000B00706D52868C068800702D0284600F07A
:10058000A6F9700607D55FEACA6004D5296810206D
:1005900044F480640861B00607D55FEA0A7004D5A8
:1005A00028680761284600F093F9F00606D5286808
:1005B0000069800702D0284600F08BF9B00308D507
:1005C0005FEAC96005D5296810204860284600F018
:1005D00081F9F00307D55FEA097004D52868476000
:1005E000284600F07EF9300446D55FEA497040D5D0
:1005F000F00504D55FEAC87001D044F00104B005ED
:1006000004D55FEA887001D544F00204700504D572
:100610005FEA487001D544F00404300529D518F08C
:10062000700F26D008F07000402815D006DC102886
:1006300009D020280AD0302816D10AE050280ED040
:10064000602811D10EE044F008040DE044F01004DD
:100650000AE044F0200407E044F0400404E044F0E1
:10066000800401E044F480742868816921F07001FD
:100670008161296804204860002C05D0686A204305
:1006800068622846FFF703FFBDE8F09F70B50400DD
:1006900003D094F8200010B104E0012070BD204682
:1006A00000F082F82068016841F00101016000F06B
:1006B00085FA0546052604E000F080FA401B0A286A
:1006C00011D820684068C007F6D02068016821F082
:1006D0000201016000F072FA05460BE000F06EFACC
:1006E000401B0A2806D9606A40F40030606284F832
:1006F0002060D2E7206840688007EFD4207E012880
:10070000206801683DD021F080010160607E0128F1
:100710002068016838D021F040010160A07E0128E6
:100720002068016833D021F020010160E07E0128BB
:10073000206801682ED041F010010160207F01285F
:100740002068016829D021F008010160607F01283C
:100750002068016824D021F004010160D4E902017D
:100760000843D4E90412114308436168491E084351
:100770002168C86100206062012084F82000002008
:1007800070BD41F08001C0E741F04001C5E741F094
:100790002001CAE721F01001CFE741F00801D4E7BA
:1007A00041F00401D9E700002DE9F04387B0044689
:1007B00014216846FFF7EDFD404B4148DFF8F88013
:1007C0001968D4F800C03E4A022503260927DFF83D
:1007D000F49010300024491CC4452CD11960012923
:1007E00007D1016841F000710160006800F00070FD
:1007F0000590106840F002001060106802AB00F035
:10080000020005904FF44070CDE9000583E8D00068
:100810006946484600F0D6F800221146142000F040
:10082000C3FC142000F0B2FC00221146152000F099
:10083000BBFC15203BE0DFF89080C44539D1D0F8EF
:1008400000C04CF0806CC0F800C0D0F800C0012996
:100850000CF0806CCDF814C0196007D1016841F02C
:1008600000710160006800F000700590106840F0B1
:1008700002001060106802AB00F0020005904FF417
:100880004050CDE9000583E8D0006946484600F0B5
:1008900099F800221146402000F086FC402000F02C
:1008A00075FC00221146412000F07EFC412000F042
:1008B0006DFC07B0BDE8F08300640040000000203C
:1008C0003038024000040240006800407047704722
:1008D0007047704770477047704770477047704760
:1008E000704770472DE9F0410446876D00F066F9C6
:1008F000064694F835000025022806D08020606561
:1009000084F834500120BDE8F0812068016821F0AE
:10091000160101602068416921F080014161206C6D
:1009200008B9A06C20B12068016821F008010160BD
:100930002068016821F0010101600CE000F03EF93F
:10094000801B052807D920206065032084F8350026
:1009500084F83450D7E720680068C007EED194F8D7
:100960005C103F208840B860012084F8350084F88E
:1009700034500020C7E790F83510022903D08021B9
:10098000416501207047052180F835100068016835
:1009900021F0010101600020704790F83500704798
:1009A00070B5044600F00AF90546601C02D0044800
:1009B0000078044400F002F9401BA042FAD370BD55
:1009C000040000202DE9F84FDFF8ACA1002201243B
:1009D00003254FF00F090AF1040BAAF1040E00BF22
:1009E0000B6804FA02F63340B3426ED10F7907F078
:1009F0000307012F01D0022F16D187684FEA420862
:100A000005FA08FC27EA0C07D1F80CC00CFA08FC20
:100A10004CEA070CC0F808C04768B7430E79C6F324
:100A2000001696403E4346600E79F643B6070AD05C
:100A3000C6684FEA420C05FA0CF7BE438F6807FA06
:100A40000CF73743C7600E7906F00306022E10D16B
:100A5000D60800EB8608D8F8206057074FEAD76C15
:100A600009FA0CF7BE430F6907FA0CF73743C8F8C9
:100A7000207006684FEA420C05FA0CF7BE430F7966
:100A800007F0030707FA0CF7374307604E6816F4C0
:100A9000403F6BD0394E376847F48047376036683F
:100AA00022F0030706F480460096354E07EB060C4D
:100AB000DCF8086897074FEA177809FA08F7BE4389
:100AC000304FB84202D100271FE04FE02E4FB8420E
:100AD00001D1012719E02D4FB84201D1022714E0BE
:100AE0002B4FB84201D103270FE02A4FB84201D162
:100AF00004270AE0284FB84201D1052705E0274F17
:100B0000B84201D1062700E0072707FA08F7374364
:100B1000CCF80878DAF800605746D1F804C09E4354
:100B20005FEACC2C00D51E433E60DBF800605F46D8
:100B3000D1F804C09E435FEA8C2C00D51E433E6072
:100B4000DEF800607746D1F804C09E435FEA8C3C33
:100B500000D51E433E60084F083F3E68D1F804C0F0
:100B60009E435FEACC3C00D51E433E60521C102AD7
:100B7000FFF436AFBDE8F88F083C0140443802402E
:100B80000030014000000240000402400008024022
:100B9000000C024000100240001402400018024005
:100BA000426921EA02030A4043EA02418161704737
:100BB0000AB1816170470904FBE7000001488068C1
:100BC0007047000004000020704770472DE9F04195
:100BD000016804464A694E6890F83E000025D743F4
:100BE000FA0506D4F243D20503D46FF480720125CE
:100BF0004A61B90508D4F143C90505D422686FF4E8
:100C0000007145F002055161790525D4F143C9050C
:100C100022D4638D94F83D10226B202808D13BB973
:100C2000212910D029290ED0282901D1212A0AD022
:100C300022686FF48061516145F00405102806D0E8
:100C4000402804D008E0204601F0BEFC04E0206803
:100C5000016841F400710160380508D4F043C00513
:100C600005D421686FF4006045F008054861002D47
:100C700007D0206C284320642046BDE8F04101F0F5
:100C800027B9BDE8F0812DE9F047026800215368DB
:100C9000C66A90F83E4090F83D50102C12D0402C7F
:100CA00010D0046C002C7DD05469E443A6077AD49C
:100CB000DE43B60577D4036C03B19169BDE8F04714
:100CC00001F05EBC976951694FF42A0CC9435FEA91
:100CD000C1784FF02A4904D066452AD04E4528D025
:100CE00010E0DE43B6050DD4C16A614501D1012192
:100CF00003E0C16A494501D10821C162BDE8F0475E
:100D000001F0A4BB0E0716D4DE43B60513D4416C24
:100D1000C9B21161416B09B1C96B29B9816B002955
:100D200007D0C96B002904D00068416841F4006114
:100D30004160BDE8F0878E0706D4DE43B60503D4D4
:100D4000BDE8F04701F0F6BAFE43526876074FEA75
:100D500002521DD4002AECDB0A0608D4DA435205FD
:100D600005D4490705D5BDE8F04701F087BA490722
:100D7000DFD4D9438905DCD4212D05D0402CD8D12E
:100D8000BDE8F04701F0A8BBBDE8F04701F034BA78
:100D9000002ACEDB4A060BD4DA43520508D44907B1
:100DA00008D501E00DE00EE0BDE8F04701F0AAB97A
:100DB0004907BED4D9438905BBD4BDE8F04701F04B
:100DC00033B9916970E7E10606D4D943890503D4A4
:100DD000BDE8F04701F040BC2821212D27D0292D66
:100DE00025D0650655D4DD436D0552D4640752D530
:100DF00090F83D30448D002C9BD01269446A2270DB
:100E0000426A521C4262428D521E4285428D002A25
:100E10008FD12A2B8DD10268536823F480635360ED
:100E20002222026380F83D1000F054F981E7250684
:100E300023D4DD436D0520D4640720D590F83D30E0
:100E4000448D002CF2D0446A24781461426A521C0A
:100E50004262428D521E4285428D002AE6D1292BE4
:100E6000E4D10268536823F4806353602122026353
:100E700080F83D1000F02FF95BE76107D6D4D94325
:100E80008905D3D4418D0029D0D0416A09781161F8
:100E90000AE06107CAD4D9438905C7D4418D002926
:100EA000C4D01169426A1170416A491C4162418D86
:100EB000491E41853DE7704770B5040025D094F880
:100EC0003D00002520B984F83C50204600F0BEF8D3
:100ED000242084F83D002068016821F001010160B0
:100EE0002068016841F4004101602068016821F434
:100EF0000041016000F05CFA4D4A6168914201D8FE
:100F00004C4900E04C49884201D2012070BD4B4958
:100F10002368B0FBF1F15E6826F03F060E435E6089
:100F20006368934206D94FF4967359434FF47A732A
:100F3000B1FBF3F12368491C1E6A26F03F063143DA
:100F400019626168914210D84900401EB0FBF1F26D
:100F5000521CC2F30B02042A01D2042022E0B0FB8F
:100F6000F1F0401CC0F30B001CE0A268F2B301EBEF
:100F7000C10303EB0116431EB3FBF6F35B1C43F402
:100F800080431B0549D092B301EBC10202EB011172
:100F9000401EB0FBF1F0401CC0F30B0040F4804059
:100FA00040F400402168CA694CF6FF739A4310432D
:100FB000C861D4E9071001432068026822F0C0022A
:100FC00011430160D4E9030101432068826848F2BB
:100FD000FF339A4311438160D4E905010843216836
:100FE000CA6822F0FF021043C86001E00EE016E07C
:100FF0002068016841F0010101602564202084F827
:101000003D00256384F83E50002070BD01EB410691
:10101000431EB3FBF6F35B1CB3E70120C2E701EB11
:101020004101401EB0FBF1F0401CC0F30B00B7E7DC
:10103000A086010080841E0000093D0040420F0090
:1010400070477047704770477047000010B586B012
:10105000044614216846FFF79CF91B492068884222
:1010600030D11A480021026842F002020260006892
:1010700000F002000590C02000901220CDE901018F
:10108000032003900420049069461148FFF79AFC5E
:101090000E481030016841F4001101600068002220
:1010A00000F40010059011461F2000F07DF81F206D
:1010B00000F06CF800221146202000F075F8202086
:1010C00000F064F806B010BD005400403038024013
:1010D000000402407047704702488168027811445A
:1010E00081607047040000200B4810B5016841F48E
:1010F00000710160016841F480610160016841F4A0
:1011000080710160032000F06FF80F2000F006F8F6
:1011100000F024F8002010BD003C024070B50D4DD9
:1011200004464FF47A712878B1FBF0F00A49096857
:10113000B1FBF0F000F072FB48B9102C07D200228E
:101140002146501E00F030F800206C6070BD012078
:1011500070BD000004000020100000200A4808B5FF
:10116000016841F480410160006800F48040009013
:101170000548001F016841F080510160006800F0DF
:101180008050009008BD000044380240002809DB70
:1011900000F01F02012191404009800000F1E02091
:1011A000C0F8001170470000F0B40E4B1B680C46ED
:1011B000C3F30223C3F10705042D00D90425191D2B
:1011C000072901D2002300E0DB1E012606FA05F103
:1011D000491E214099409E40761E16403143F0BC86
:1011E00001F089BD0CED00E0064900F00702086837
:1011F0004FF6FF03184040EA0220034A10430860FC
:10120000704700000CED00E00000FA052DE9F843FE
:101210001748016841F0805101600068154F00F0E7
:101220008050012600903E64FFF7C8FC05464FF44D
:101230007A78114C05E000BFFFF7C0FC401B404529
:101240000DD86068C003F7D57E64FFF7B7FC05468C
:10125000464607E0FFF7B2FC401BB04202D903202C
:10126000BDE8F88360688003F4D50020F8E700004B
:101270004038024000000E42007000402DE9F04767
:101280000E46050065D0DFF81481D8F80000F7B2EB
:1012900000F00F00B04207D288F80070D8F80000C4
:1012A00000F00F00B04254D128683D4C810712D5A0
:1012B000400703D5206840F4E050206028780007FC
:1012C00003D5206840F4604020602068A96820F0C1
:1012D000F000084320602878C0072DD030496868A6
:1012E0000839012812D0022813D0032811D0096828
:1012F000890700292DDA216821F0030101432160CB
:10130000FFF75CFC814641F2883A0EE009688903E8
:10131000EFE709688901ECE7FFF750FCA0EB090152
:10132000514502D90320BDE8F0872068696800F0C4
:101330000C00B0EB810FEFD1D8F80010404601F05F
:101340000F01B14207D90770006800F00F00B042EA
:1013500001D00120E7E72878400705D52068E96833
:1013600020F4E050084320602878000706D5206864
:10137000296920F4604040EAC100206000F038F89C
:101380002168084AC1F30311515CC840064908604E
:1013900006480068FFF7C2FE0020C4E7003C024098
:1013A00008380240E62D0008100000200800002048
:1013B0000448054900680968044AC1F38221515C68
:1013C000C84070471000002008380240F62D000881
:1013D0000448054900680968044AC1F34231515C78
:1013E000C84070471000002008380240F62D000861
:1013F000224810B5006810F00C02214815D04110A9
:10140000042A11D01D4C241F082A0FD00C2A0CD1FD
:101410002268236802F03F025B0221D52068C0F3F6
:101420008810A0FB010120E0084610BD2268236857
:1014300002F03F025B0205D52068C0F38810A0FBD4
:10144000010104E02168C1F38811A1FB0001002320
:10145000FEF728FF2168C1F30141491C49000AE059
:101460002168C1F38811A1FB00010023FEF71AFFD8
:101470002168C1F30271B0FBF1F010BD08380240E1
:101480000024F4002DE9F84F04007DD0DFF878B394
:101490002078ABF10407C007A7F1040550D0DBF8B2
:1014A00000105846C1F3810101290FD00168C1F332
:1014B0008101022902D13968490207D40068C0F3CA
:1014C0008100032809D13868400206D528688003C6
:1014D00036D560680028D8D032E06068B0F5803F2B
:1014E00010D0B0F5A02F286810D020F480302860EC
:1014F000286820F4802028606068A0B1FFF75EFBB8
:1015000006460CE0286840F48030F4E740F4802080
:101510002860F7E7FFF752FB801B642876D828681D
:101520008003F7D50CE0FFF749FB064605E000BF56
:10153000FFF744FB801B6428F0D828688003F7D4A9
:101540002078DFF8C89280074FF0000A44D5DBF816
:101550000010584611F00C0F0FD00168C1F3810143
:10156000022902D13968490207D50068C0F3810019
:1015700003280AD13868400207D42868800715D5A7
:10158000E068012800D111E03AE1E068B0B1012043
:10159000C9F80000FFF712FB064604E0FFF70EFB58
:1015A000801B0228BAD828688007F7D528682169E7
:1015B00020F0F80040EAC10028600DE0C9F800A062
:1015C000FFF7FCFA064604E0FFF7F8FA801B022852
:1015D0001CD828688007F7D42078000727D5DFF8C3
:1015E00028828B48616908F16C0881B10121016092
:1015F000FFF7E4FA064604E0FFF7E0FA801B022852
:1016000004D8D8F800008007F6D510E089E0C0F8CB
:1016100000A0FFF7D3FA064605E000BFFFF7CEFAB9
:10162000801B02287DD8D8F800008007F6D42078E7
:10163000400769D574484FF0000838300068C00092
:101640000BD471483830016841F080510160006866
:101650004FF0010800F0805000906E4E3068C005D9
:1016600011D4306840F480703060FFF7A7FA009022
:1016700006E000BFFFF7A2FA0099401A022850D8EE
:101680003068C005F6D5604EA068683601280FD0D6
:101690000528306810D020F001003060306820F05C
:1016A00004003060A068B8B1FFF788FA00900FE03E
:1016B000306840F00100F4E740F004003060F7E7E4
:1016C000FFF77CFA0099411A41F28830814264D8D0
:1016D00030688007F4D50EE0FFF770FA009007E05D
:1016E000FFF76CFA0099411A41F28830814254D8D0
:1016F00030688007F4D4B8F1000F05D04248383084
:10170000016821F080510160A069A8B3DBF80010E6
:10171000C1F38101022947D00228C9F860A005D091
:1017200000E03AE0FFF74AFA044639E0FFF746FAEC
:10173000064604E0FFF742FA801B02282DD82868ED
:101740008001F7D4F4E907010843E168324A490807
:1017500002EB0141A26841EA82110843217C40EA80
:101760000160217D40EA017038600120C9F8600005
:10177000FFF724FA044606E044E000BFFFF71EFA34
:10178000001B022809D828688001F7D53AE000BF7D
:10179000FFF714FA001B022802D90320BDE8F88FD6
:1017A00028688001F4D42DE00128F7D03868E26978
:1017B00000F48001914223D1226A00F03F0191425E
:1017C0001ED147F6C071626A0140B1EB821F17D18A
:1017D000A26A4FF0FF3300F4403103EB5202B1EB49
:1017E000024F0DD194F82C2000F07061B1EB026F24
:1017F00006D194F8301000F0E040B0EB017F01D04A
:101800000120CBE70020C9E708380240000047422A
:10181000800E4742007000400000FFFF10B5401EE0
:10182000B0F1807F01D3012010BD4FF0E024606152
:101830000F21601701F05FFA0020A06107202061EE
:10184000002010BD7047704710B5040003D094F815
:101850003D0010B107E0012010BD002084F83C00DD
:10186000204600F01FF8022084F83D00211D20686A
:1018700001F0A4F8012084F8460084F83E0084F8C2
:101880003F0084F8400084F8410084F8420084F866
:10189000430084F8440084F8450084F83D000020AB
:1018A00010BD000008B500680B49884212D10B48F2
:1018B000016841F4807101600068002200F48070CA
:1018C000009011462D20FFF76FFCBDE808402D2049
:1018D000FFF75CBC08BD000000200040403802401B
:1018E00070472DE9F04104460068C66805694FF06D
:1018F0000007A90713D5B10711D5F91E0161012011
:101900002077206880698007204602D0FFF7E8FF33
:1019100004E000F07EF8204600F07CF827776807A6
:1019200016D5700714D521686FF0040008610220F5
:1019300020772068806910F4407F204602D0FFF7AE
:10194000CFFF04E000F065F8204600F063F8277749
:10195000280715D5300713D521686FF008000861F6
:10196000042020772068C0698007204602D0FFF756
:10197000B7FF04E000F04DF8204600F04BF8277761
:10198000E80616D5F00614D521686FF0100008613E
:10199000082020772068C06910F4407F204602D0DC
:1019A000FFF79EFF04E000F034F8204600F032F824
:1019B0002777E80708D0F00706D021686FF001000C
:1019C0000861204600F027F8280608D5300606D51D
:1019D00021686FF0800008612046FFF733FF68063A
:1019E00008D5700606D521686FF0400008612046D2
:1019F00000F012F8A8060AD5B00608D521686FF0E5
:101A0000200008612046BDE8F041FFF71CBFBDE89B
:101A1000F08170477047704770477047704700000B
:101A2000F8B5016804460868CA684B6910F00F0FE2
:101A30004FF0000559D003F0010602F490773743C8
:101A400065D0C10705D0D10503D5616C41F0010116
:101A50006164410705D5D90703D0616C41F00201EB
:101A60006164810705D5D90703D0616C41F0040199
:101A70006164010707D502F02001314303D0616C96
:101A800041F008016164616C00293AD0800604D5F8
:101A9000900602D5204601F046F820684069616C46
:101AA000C0F38010090700D460B3204601F014F899
:101AB00020684069400621D52068143050E8001F96
:101AC00021F0400140E80012002AF5D1E06BA8B1F6
:101AD0006E490165E06BFEF74EFF002811D0E06B08
:101AE000016D01B0BDE8F040084783060FD59306AD
:101AF0000DD52046BDE8F84001F015B82046FFF7A7
:101B00008DFFF8BD2046FFF789FF6564F8BD266BA1
:101B10002023012E7DD1C6067BD5D60679D508684F
:101B20004868009048694FF00206400641D5E16BD5
:101B3000086840680004000CE8D0A28D8242E5D914
:101B4000E085C869B0F5807F2DD020680C3050E862
:101B5000001F21F4807140E80012002AF5D12068AE
:101B6000143050E8001F21F0010140E80012002A63
:101B7000F5D12068143050E8001F21F0400140E802
:101B80000012002AF5D184F84230256320680C3019
:101B900050E8001F21F0100140E80012002AF5D1A2
:101BA000E06BFEF79FFE6663A08DE18D401A81B267
:101BB0002AE0A08DE18D401A81B2E08D0028A5D0E9
:101BC0000029A3D022680C3252E8000F20F4907054
:101BD00042E80007002FF5D12068143050E8002FAC
:101BE00022F0010240E80027002FF5D184F84230AE
:101BF000256320680C3050E8002F22F0100240E8E6
:101C00000023002BF5D166632046FFF706FFF8BDE1
:101C1000FFE705062BD5150629D594F841002128A4
:101C2000F5D1A068B0F5805F01D12069B0B1206A1C
:101C3000411C2162216800784860E08C401E00044D
:101C4000000CE084E3D12068C16821F08001C1600C
:101C50002068C16841F04001C160D8E7206A00886F
:101C6000C0F308004860206A801C2062E5E7400657
:101C7000CDD55006CBD5CA68204622F04002CA60B6
:101C800084F8413000F0AFF8C1E70000C92A00082D
:101C900070B5040004D094F84100002510B106E0AE
:101CA000012070BD84F84050204600F023F8242025
:101CB00084F841002068C16821F40051C1602046C9
:101CC00000F092FF2068016921F4904101612068D1
:101CD000416921F02A0141612068C16841F4005145
:101CE000C1606564202084F8410084F84200656387
:101CF000002070BDF0B587B0044614216846FEF799
:101D000048FB3349314B2268002531481039032400
:101D1000022608279A421FD1026842F4002202607C
:101D2000006800F400200590086840F00100086099
:101D30000868CDE9004600F00100CDE90470CDE966
:101D4000025469462348FEF73DFE00221146342026
:101D5000FFF72AFA342034E01F4B9A4233D102684D
:101D600042F480120260006800F480100590086858
:101D700040F004000860086800F00400059008685E
:101D800040F0080008600868CDE9025400F008003F
:101D900005909814CDE90006694604970F48FEF7B0
:101DA00011FE0420CDE90006CDE9025469460497EE
:101DB0000B48FEF707FE002211463520FFF7F4F925
:101DC0003520FFF7E3F907B0F0BD0000004C0040FC
:101DD000403802400000024000500040000802402D
:101DE000000C024070477047FEE700000148FEF714
:101DF000EDBE0000640000200148FEF744BF000073
:101E00006400002038B5806B002190F83D202B4BFA
:101E100046F2A8141B68B3FBF4F3C3EBC30303EB54
:101E2000830300933BB15B1E009303681B689B0513
:101E300005D5009BF6E7036C43F020030364436B76
:101E400003B1D963836B03B1D96303681C6824F4BD
:101E500080641C604185436B03B11965836B03B1DA
:101E6000196503681C6824F001041C6090F83D406B
:101E70002023602C0BD0282434EA02020FD080F8F3
:101E80003D3080F83E1000BFFFF715F838BD80F8F0
:101E90003D3080F83E100164FEF796FE38BD0268C2
:101EA000136843F0010313600268136843F480630E
:101EB0001360016380F83D40E6E700001000002059
:101EC00000684169C943090601D4002101617047D6
:101ED00070B5044690F83D0094F83E10102901D0EA
:101EE000402906D1222804D121680A6822F4006220
:101EF0000A60282131EA00024FF000054FF0200669
:101F000026D021684968090505D4602803D084F8E3
:101F10003D6084F83E50256320684168090537D547
:101F2000416821F400614160606B90F835203C49C4
:101F3000012A11D00165606BFEF71DFD38B32068E2
:101F4000016821F00101016084F83D60606B1CE0D4
:101F5000256384F83D10DFE7A06B0165A06BFEF7F9
:101F60000AFDA0B120684169C943490605D400694A
:101F7000616A0870606A401C60622068016821F034
:101F80000101016084F83D60A06B016D884710E09D
:101F900094F83D10602910D04169C943490605D421
:101FA0000069616A0870606A401C60622046FEF742
:101FB00082FF206CC1071CD115E084F83D602564C8
:101FC0004169C943490605D40069616A0870606ABD
:101FD000401C60622068016821F001010160204618
:101FE000FEF7F2FDE5E7810703D4410701D40007BE
:101FF00004D52068416821F4E061416094F83D0017
:10200000216C49070BD5282809D10648E0622563D1
:1020100084F83D6084F83E502046FFF711F870BD0B
:10202000051E00080000FFFF10B5C26A438D01685D
:10203000042B06D0438D032B08D0438D022B1DD0DB
:1020400012E04A6822F480624A600CE04B6823F494
:1020500080634B60042A06D0022A04D001680A6813
:1020600022F480620A6001680969426A1170416A5B
:10207000491C4162418D491E418510BD012A34D061
:10208000102A32D0042A34D0022A32D00B6843F40A
:1020900000730B6001680969436A1970416A491C41
:1020A0004162438D5B1E438503681B690B70416A67
:1020B000491C4162418D491E418501684B6823F4EA
:1020C00040734B60202180F83D1090F83E30002195
:1020D000402B80F83E1010D0082A02D0202A00D0D1
:1020E00012210163FEF7ADFF10BD0B6823F480637E
:1020F000CFE70B6843F48063CBE70163FEF7A3FFF0
:1021000010BD000038B590F83D10222910D1C36AE7
:10211000418D03290DD901680969426A1170416A2C
:10212000491C4162418D491E4185418D032906D0DC
:1021300038BDC26A022A02D0012906D029B100683E
:10214000416821F48061416038BD2A4A46F2A814F2
:1021500000211268B2FBF4F202EB820200920268E4
:102160002024009D6D1E009526D01568AD05F8D47D
:10217000156825F4806515600268556825F4E065EA
:10218000556002681269456A2A70426A521C4262AE
:10219000428D521E428580F83D4090F83E2080F8E6
:1021A0003E10402A21D0082B02D0202B00D0122133
:1021B0000163FEF746FF38BD036C43F02003036460
:1021C000536823F4E063536002681269436A1A702B
:1021D000426A521C4262428D521E428580F83D4046
:1021E00080F83E10FEF767FE38BD0163FEF72BFF57
:1021F00038BD00001000002010B5C26A90F83D10F4
:1022000021290BD1418D51B1416A026809781161D0
:10221000416A491C4162418D491E418510BD202300
:102220000021082A13D0202A11D012F5803F0ED0A9
:102230000268546824F4E06454601122026380F858
:102240003E1080F83D3000BFFEF7FCFE10BD026876
:10225000546824F4E06454600268146844F4007420
:102260001460016380F83D3090F83E2080F83E1005
:10227000402AE9D1FEF7E8FE10BD000010B590F845
:102280003D1090F83E30C26A048DB4B1212903D0CC
:10229000402B11D122290FD1418DE1B390F83E108E
:1022A000402942D0416A026809781161416A491C9B
:1022B0004162418D491E418510BD2129E8D120236D
:1022C0000021082A13D0202A11D012F5803F0ED009
:1022D0000268546824F4E06454601122026380F8B8
:1022E0003E1080F83D3000BFFEF7ACFE10BD026826
:1022F000546824F4E06454600268146844F4007480
:102300001460016380F83D3090F83E2080F83E1064
:10231000402AE9D100E002E0FEF796FE10BD006819
:10232000416821F48061416010BDBDE8104000F0BB
:10233000D3B8000078B590F83E50C26A036B90F8AD
:102340003D6000240168222E7AD1066D0EB9402D21
:1023500076D0056D1DB90569B5F5404F09D0458D9D
:1023600005B3468D384D012E0ED0438D022B3AD049
:102370005DE04A698A6900920A6842F480720A60E4
:10238000016D491C016578BDAA4213D10A6822F487
:1023900080620A6001684A68120503D50A6822F45F
:1023A000806216E04A698A6900920A6842F4007203
:1023B0000A6039E0082A10D0202A0ED0122B0AD049
:1023C000042A03D0022A01D0102AE7D10A6842F475
:1023D00080620A6024E0012AE0D00A6822F4806268
:1023E0000A600168DEE7042A21D0022A1FD0102AE1
:1023F0001DD00B6823F480630B6001680B6843F405
:1024000000630B6001684B681B0509D5AA4212D016
:10241000012A10D0082A0ED0102A0CD0202A0AD067
:1024200001684A6989690091046578BD08E00B6814
:1024300043F48063E5E74A6842F480524A60EFE77C
:10244000486988690090F0E70000FFFF90F83E10AF
:10245000402910D00169B1F5804F19D0016DA9B3A1
:10246000016D012910D1416C5FF0F10201F440715E
:1024700042EAD11106E0016D0029416C05D0C9B2D4
:1024800041F0010100680161704701F0FE01F9E7C8
:1024900090F83D102129416C09D0C9B241F00101E9
:1024A00002681161416B29B1C96B49B902E001F0C1
:1024B000FE01F5E7816B0029E6D0C96B0029E3D066
:1024C0000068416841F4006141607047FFE7416C7A
:1024D000F02201F44071CBE710B590F83D10026D89
:1024E0004AB1026D012A14D0026D022A16D0BDE84D
:1024F0001040FFF7E5BCC16C0129816C02D0C1F32B
:10250000072108E00268C9B21161016D891C0165EB
:1025100010BD816CC9B20268116123E022291CD070
:10252000428D0AB1212920D0428D002AF0D12129E3
:10253000EED101684A6822F4E0624A6001680A68E4
:1025400042F400720A6000210163202280F83D20DD
:1025500080F83E10FEF778FD10BD01680A6842F46D
:1025600080720A60016D491CD1E7416A02680978EE
:102570001161416A491C4162418D491E418510BD6E
:1025800038B50C4690F83D20002128259543026877
:102590000B4605D051699169009180F83C3038BDF7
:1025A000556825F480655560E243540700D5012144
:1025B000120601D5828900E0028B80F83C3092B28D
:1025C000FEF703FB38BD00002DE9F04190F83D30E7
:1025D0000446C26A002120261E4F00686FF4806501
:1025E000082A01D0202A01D1282B04D0212B17D072
:1025F0004561BDE8F081E762426822F4E062426032
:10260000206845612068026822F4806202602163CC
:1026100084F83D6084F83E102046FEF711FDE8E79F
:10262000E7622122226384F83D6084F83E1041680D
:1026300021F4E0614160206845612068016821F46F
:10264000806101602046FFF73BFC2046FEF743FD1A
:10265000CFE700000000FFFFF8B590F83D600446AA
:102660000068416821F4E06141602068002541690B
:102670000091016841F0010101602068016821F4C6
:102680008061016020684168090520D5474F222EEE
:1026900048D02A2E46D0616B096849686185618DF2
:1026A00019B1216C41F004012164416821F40061F9
:1026B0004160606BFEF771F9012808D0606B076517
:1026C000606BFEF758F910B1606B016D8847608D43
:1026D00008B320684169C943490708D40069616AA1
:1026E0000870606A401C6062608D401E60852068D2
:1026F0004169C943490608D40069616A0870606A83
:10270000401C6062608D401E6085608D18B1206C39
:1027100040F004002064206C00B32046BDE8F8407F
:10272000FFF7D6BBA16B096849686185618D19B156
:10273000216C41F004012164416821F40061416091
:10274000A06BFEF72AF90128C1D0A06B0765A06B2A
:10275000FEF711F90028BAD0A06BB6E72A2E06D1F1
:102760002563282084F83D002046FEF7B3FC94F84A
:102770003D10202028290DD0216B222901D0222EA6
:1027800007D1256384F83D0084F83E502046FEF7CB
:10279000A1FCF8BD0649E162256384F83D0084F898
:1027A0003E502046FEF74CFCF8BD0000051E000818
:1027B0000000FFFF0E4810B50C4901600C2141607C
:1027C00000214FF430228160C0E903124FF48012DF
:1027D0004261017641768176C17601774177FDF7D6
:1027E00055FF002801D072B6FEE710BD006400401E
:1027F000140000200E4810B50C4901600C21416006
:1028000000214FF420228160C0E903124FF400122E
:102810004261017641768176C17601774177FDF795
:1028200035FF002801D072B6FEE710BD00680040F9
:102830003C000020F0B587B014216846FDF7A9FDE3
:1028400029480024016841F004010160016801F099
:1028500004010591016841F080010160016801F007
:1028600080010591016841F001010160016801F0FA
:1028700001010591016841F002010160016801F068
:1028800002010591016841F0080101600068174FDD
:1028900000F0080005900022C4213846FEF788F9B0
:1028A000042601250096CDE9015469463846039572
:1028B000FEF788F8CDE9006469460D480294FEF7FA
:1028C00081F8C0200090CDE9015469463846039450
:1028D000FEF778F8E802CDE900046946384602942C
:1028E000FEF770F807B0F0BD303802400008024033
:1028F00000000240FEE7FEE770477047FEF7ECBBC2
:1029000010B594B034216846FDF743FD14210DA89D
:10291000FDF73FFD20480024016841F0805101602F
:10292000006800F0805012901C48016841F440415A
:102930000160006800F44040129001200090000403
:10294000019002204105CDE9060104210891B4213E
:10295000CDE909100B900C906846FEF793FD08B185
:1029600072B6FEE7FEF752FC08B172B6FEE70F2022
:102970000D900320CDE90E044FF4A05010904FF4B9
:102980008050119005210DA8FEF778FC002801D099
:1029900072B6FEE714B010BD40380240007000402F
:1029A0000248016841F470010160704788ED00E061
:1029B0000148FEF796BF0000B8000020F0B502689D
:1029C000294C2A4D2A4E2B4F2B4B4FF0804CA042C6
:1029D00009D0604507D0A84205D0B04203D0B84224
:1029E00001D0984204D122F0700E4A6842EA0E02E9
:1029F000A0421BD0604519D0A84217D0B04215D0D4
:102A0000B84213D0984211D01C4DA8420ED01C4D94
:102A1000A8420BD01B4DA84208D01B4DA84205D0A0
:102A20001A4DA84202D01A4DA84203D122F4407593
:102A3000CA682A434D6922F080022A4302608A68EC
:102A4000C2620A688262A04201D0984201D109693B
:102A50000163012141610169C90703D0016921F0C6
:102A600001010161F0BD00000000014000040040D0
:102A700000080040000C00400004014000400140FC
:102A8000004401400048014000180040001C004084
:102A90000020004010B504210448FEF781F8BDE88D
:102AA00010404FF47A70FDF77BBF00000000024039
:102AB0000148FEF7B5BF0000000100200148FEF705
:102AC000AFBF00004801002010B5806B0021C18518
:102AD000C184FEF7A3FF10BD01680C3151E8002F3F
:102AE00022F4907241E80023002BF5D101681431E3
:102AF00051E8002F22F0010241E80023002BF5D11C
:102B0000016B012909D101680C3151E8002F22F035
:102B1000100241E80023002BF5D1202180F842105B
:102B200000210163704708B590F84210222901D0B6
:102B3000022008BD82684FF480539A4201D1016996
:102B400021B1816A9A421BD04AB10AE00268816AC7
:102B50005268C2F308020A80816A891C08E002698F
:102B600072B10268526802F07F020A70816A491CE1
:102B70008162C18D491E0904090CC18503D01BE087
:102B800002685268F1E70168CA6822F02002CA6050
:102B90000168CA6822F48072CA6001684A6922F03A
:102BA00001024A61202180F8421000214163026B3A
:102BB000012A03D0FFF716F9002008BD0163016860
:102BC0000C3151E8002F22F0100241E80023002BC5
:102BD000F5D101680A68D20602D50A6849680091F1
:102BE000818DFEF71AFFE7E770B5044600680169BA
:102BF000E26821F44051114301612169A068E26952
:102C000008436169114308432168CA6849F20C63AB
:102C10009A430243CA6020684169A26921F4407165
:102C20001143416131492068884202D030498842CD
:102C300002D1FEF7CDFB01E0FEF7BAFBE26900230B
:102C4000192164253226B2F5004F626828D0A0FB16
:102C50000101930F9200FDF725FB0146B0FBF5F053
:102C60006FF01802504301EB800006EB0010B0FB40
:102C7000F5F000F0F002B1FBF5F002EB0012B1FB51
:102C8000F5F06FF01803584301EB800006EB0010DD
:102C9000B0FBF5F000F00F0021681044886070BDB3
:102CA000A0FB010192185B41FDF7FCFA0146B0FB65
:102CB000F5F00201B1FBF5F06FF01803584301EB9A
:102CC000800006EBC000B0FBF5F000F0F80002EB6E
:102CD0004002B1FBF5F0584301EB800006EBC00069
:102CE000B0FBF5F000F00700D6E70000001001404F
:102CF00000140140FEE70907090E002804DB00F17B
:102D0000E02080F80014704700F00F0000F1E02090
:102D100080F8141D70470000FEF7E6F9FFF7F0FD9C
:102D2000FFF788FDFFF746FDFFF764FD26482549BC
:102D30004FF4E13600240160C0E901640C25C46051
:102D4000C0E904458461C461FEF7A2FF08B172B610
:102D5000FEE71D481D4948300160C0E90164C460B8
:102D6000C0E904458461C461FEF792FF08B172B600
:102D7000FEE7154816494838016042F22731C0E99C
:102D8000011440F2E731C0E903148461FEF75CFDF1
:102D900008B172B6FEE70C480E499C3801600E4936
:102DA000C0E901144FF48041C0E9034144618461EA
:102DB000C4610462FEF780F808B172B6FEE7FFF75F
:102DC00069FEFCE7004C004000010020005000407C
:102DD0000020004000540040A08601004FF04070E9
:102DE000E1EE100A70470000000000000000010240
:102DF00003040607080900000000010203040000A4
:102E0000202E00080000002014000000000200082E
:102E1000342E000814000020DC0700001C0200080B
:102E20000000000001000000100000000000000091
:042E30000024F40086
:04000005080001C529
:00000001FF
